:020000040800F2
:10000000F80400209D010008410D0008A90C00081B
:100010003D0D0008250700087719000800000000C2
:10002000000000000000000000000000F9100008BF
:100030002907000800000000AD0F0008CD130008DC
:10004000B7010008B7010008B7010008B7010008B0
:10005000B7010008B70100082D070008ED070008E8
:100060000D090008B7010008B7010008B701000832
:10007000B7010008B7010008B7010008B701000880
:10008000B7010008B7010008B7010008B701000870
:10009000B7010008B7010008B7010008B701000860
:1000A000B7010008B7010008B7010008B701000850
:1000B00039140008D5140008B7010008B70100087A
:1000C000B7010008B7010008B7010008B701000830
:1000D000B701000859170008B7010008B701000868
:1000E000B7010008B7010008B7010008B701000810
:1000F000B7010008B7010008B7010008B701000800
:10010000B7010008B701000861150008B701000831
:10011000B7010008B7010008B7010008F115000891
:10012000B7010008B7010008B7010008B7010008CF
:10013000B7010008B7010008B7010008B7010008BF
:10014000B7010008B7010008B7010008B7010008AF
:10015000B7010008B7010008B7010008B70100089F
:10016000B7010008B7010008B7010008B70100088F
:10017000B7010008B7010008B7010008B70100087F
:10018000B7010008B7010008DFF80CD000F02AFA28
:100190000048004771230008F80400200648804703
:1001A00006480047FEE7FEE7FEE7FEE7FEE7FEE75C
:1001B000FEE7FEE7FEE7FEE7D1130008890100082D
:1001C00000F0004230F000400AD0C10D01F560712E
:1001D000C0F3160042EA0151C208400711437047BC
:1001E00000200146704730B50B4601460020202212
:1001F000012409E021FA02F59D4205D303FA02F534
:10020000491B04FA02F52844151EA2F10102F1DC93
:1002100030BD2DE9F05F0546002092469B4688469A
:100220000646814640241BE0284641464746224672
:1002300000F0F9F953465A46C01A914110D31146BD
:100240001846224600F0E0F92D1A67EB01084F46E8
:1002500022460120002100F0D7F917EB00094E419A
:10026000201EA4F10104DFDC484631462A464346FD
:10027000BDE8F09F2DE9FE4F804681EA0300C00FE4
:100280000C46009021F0004123F00045B8EB02003D
:10029000A94105D24046214690461C460B460246DF
:1002A00023F00040104347D0270DC7F30A00C3F3E3
:1002B0000A510290401A019040286BDAC3F31300F0
:1002C00040F4801B0098924620B10023D2EB030A31
:1002D00063EB0B0B01985946C0F14002504600F009
:1002E00093F906460D4650465946019A00F0ABF97F
:1002F00010EB08006141002487EA115284EAE77399
:100300001A4340D0009A62B3019A012A4FEA075279
:1003100015DC001B61EB02014FF0004202EA0752BC
:10032000CDE90042001C41F5801132462B4600F019
:10033000ABF903B0BDE8F08F40462146F9E7001B5A
:1003400061EB0201001C41F5801300185B4120188D
:10035000A2F5001747EB030140EAD570B6196D41CD
:1003600011E06D084FEA360645EAC0754FEA0752BC
:10037000001B61EB0201001C41F5801149084FEAA6
:1003800030000019514132462B4603B0BDE8F04F12
:1003900000F06BB90098012240000023D0EB02026C
:1003A00063EBE073009821464FEAE074B8EB00007D
:1003B00061EB0401E9E783F000435BE781F0004172
:1003C00058E72DE9FE4F81EA030404F0004421F0D0
:1003D000004100944FF0000B23F0004350EA010469
:1003E0005ED052EA03045BD0C3F30A54C1F30A554A
:1003F0002C44A4F2F3340194A0FB0254C1F3130182
:1004000041F48011C3F3130343F4801301FB02444E
:1004100000FB034E840A970A44EA815447EA835753
:10042000A4FB076802958D0A05FB07854FEA932C0C
:1004300004FB0C542705029D4FEA065847EA16377D
:10044000B5EB08056EEB070C870E920E47EA811795
:1004500042EA8312A7FB0201B6EB0B0164EB000436
:100460002B0D43EA0C335E1844EB1C50DA46514620
:10047000E7FB0201C5F313044FEA0B3343EA1453BD
:100480004FEA0432019C43EA0603A4F10C040294EF
:10049000009CCDE900B400F0F7F803B0BDE8F08FA0
:1004A00000200146F9E72DE9F04D81EA030404F04C
:1004B000004B21F0004514464FF0000A23F00041A4
:1004C00050EA050220D054EA01021DD0C5F30A57B4
:1004D0000246C5F31303C1F31300C1F30A5640F4F7
:1004E000801543F48013A7EB0608101BD64608F2CC
:1004F000FD3873EB050002D308F1010801E0921802
:100500005B41B8F1000F03DA00200146BDE8F08D31
:1005100000204FF48011064684460EE0171B73EB53
:10052000050705D3121B63EB050306434CEA010CD8
:1005300049084FEA300092185B4150EA0107EDD1BB
:1005400052EA030012D082EA040083EA050108435C
:1005500005D0101BAB4106D20122002306E0002289
:100560004FF0004302E06FF0010253101AEB060057
:100570004CEB085110EB0A0041EB0B01BDE8F04DCC
:1005800000F073B8C1F30A52C1F3130140F2FF3314
:1005900041F480119A4202DA00200146704740F28D
:1005A00033439A42A2F2334202DC524200F03BB89B
:1005B00000F02AB830B5041E71F1000404DB4FF0DE
:1005C0000044404264EB0101141E73F1000405DB9A
:1005D0001C464FF00043524263EB0403994208BFAC
:1005E000904230BD064C074D06E0E06840F0010344
:1005F00094E8070098471034AC42F6D3FFF7C8FDE3
:10060000CC240008EC240008202A04DB203A00FA5D
:1006100002F1002070479140C2F1200320FA03F359
:10062000194390407047202A04DB203A21FA02F057
:100630000021704721FA02F3D040C2F1200291401C
:10064000084319467047202A06DBCB17203A41FAA7
:1006500002F043EAE07306E041FA02F3D040C2F14F
:100660002002914008431946704710B5141E73F1DB
:10067000000408DA401C41F1000192185B411A4362
:1006800001D120F0010010BD2DE9F04D92469B46AE
:1006900011B1B1FA81F202E0B0FA80F22032904654
:1006A000FFF7B2FF04460F4640EA0A0041EA0B0199
:1006B00053465A46084313D0114653EA010019D055
:1006C000C8F140025046FFF7AEFF05460E465046C1
:1006D00059464246FFF798FF084305D0012004E041
:1006E00020463946BDE8F08D0020054346EAE07615
:1006F0002C4337430A986305E40AA0EB0800002264
:10070000FD0A44EA47540A3002D500200146E9E7D1
:10071000010510196941DDE9084500196941BDE885
:10072000F04DA2E700BFFEE77047000010B50121C1
:10073000244800F0AEFA20BB23A001F031F9244890
:10074000007820F02000224908700020214908602C
:1007500000212048243800F096FF1F480078022826
:100760002CD11E480078401C1C49087020211548D7
:1007700000F08FFA012821D10121194800F083FFF0
:100780001CE018A001F00CF901211248243800F0F7
:100790007AFF1148007818B10F480078012805D178
:1007A0000B48007840F002000949087000200C490D
:1007B0002431086000210A4800F065FF012000F0A4
:1007C000ADF910BD00100240C3C5B9D80D0A000034
:1007D0000100002024140040080000200300002035
:1007E000000C0040C3C5BFAA0D0A000010B50221CD
:1007F0003E4800F04EFA01282FD104213B4800F07A
:1008000048FA30B93A480078032802D10420384920
:1008100008700421354800F03CFA012862D13448C0
:10082000007807285ED10020314908700121314845
:1008300000F029FF3048007828B930480078401C83
:100840002E4908704EE02C48007801284AD12B48E8
:100850000078401E2949087044E00421234800F034
:1008600018FA01282AD122480078012806D0204809
:10087000007818B11E48007805281FD11C48007860
:1008800001280BD10121194800F003FA012805D1F4
:100890001B48007840F004001949087002201449F0
:1008A0000870002014490870164908600021154896
:1008B000243800F0E8FE00201349087004210B489A
:1008C00000F0E7F970B90A48007805280AD100203D
:1008D0000849243108600021064800F0D4FE0620B3
:1008E00003490870022000F019F910BD0010024001
:1008F000000000200004004008000020020000204A
:1009000001000020240C00400300002010B5042149
:10091000514800F0BEF9012844D102214E4800F0B0
:10092000B8F9012826D14D480078042822D10020AA
:100930004A49087001214A4800F0A5FE00214FF005
:10094000804000F0A0FE4FF08040406A45490860BA
:100950004548007828B945480078401C434908704C
:1009600008E041480078012804D140480078401E42
:100970003E4908700221384800F08BF9002867D101
:1009800036480078062863D100214FF0804000F0FF
:100990007AFE4FF08040406A3249086007202F49B4
:1009A000087055E002212C4800F073F9B0B92B48CB
:1009B0000078022812D10020294924310860002142
:1009C000274800F060FE00204FF08041486201217E
:1009D000880700F058FE03202049087002211E48B5
:1009E00000F057F9012833D11C480078012806D0BF
:1009F0001A48007818B119480078022828D1002038
:100A00004FF0804148620121880700F03CFE134806
:100A1000007801280BD101210F4800F03AF9012894
:100A200005D11348007840F00400114908700520F2
:100A30000A49087001200C49087000200D4908601F
:100A400000210C48243800F01EFE00200A490870DE
:100A5000042000F063F810BD0010024000000020E8
:100A6000000400400C0000200800002002000020CC
:100A700001000020240C0040030000200EB500F00F
:100A800015F90121880300F0B3FA0121042000F0D8
:100A900035FB0221042000F031FB0021042000F08E
:100AA0002DFB0720009000208DF8040010208DF809
:100AB000050001208DF80600684600F035F8072093
:100AC0008DF8080001208DF8090002208DF80A0039
:100AD00001208DF80B0002A800F034F908208DF8F1
:100AE000080001208DF8090002208DF80A0001207D
:100AF0008DF80B0002A800F025F906208DF80800FB
:100B000001208DF8090003208DF80A0001208DF8DE
:100B10000B0002A800F016F90EBD000001490860A4
:100B200070470000143C0140002123498279002ACB
:100B30003AD00A46126803689A430B461A600A1DA7
:100B4000126803689A430B1D1A60027911440A68FF
:100B500003681A430A60184A0832126803689A4305
:100B6000154B08331A601A1D126803689A43124B1A
:100B70000C331A604279102A0ED11A1F12680368CA
:100B80001A430D4B08331A601A1D126803681A4382
:100B9000094B0C331A600DE00749427911440A6889
:100BA00003681A430A6005E0027911440A68036881
:100BB0009A430A6070470000003C0140F0B50A46C5
:100BC00000210023002400BF3DE0012505FA01F3C8
:100BD000156805EA03049C4234D105684F000326DA
:100BE000BE40B543056015794E00B54006683543F3
:100BF00005601579012D02D01579022D16D1856871
:100C00004F000326BE40B543856055794E00B54080
:100C1000866835438560456801268E40B54345604A
:100C2000456896798E40B6B235434560C5684F0039
:100C30000326BE40B543C560D5794E00B540C668B1
:100C40003543C560491C1029BFD3F0BDF0B5002362
:100C500000244D07ED0E02FA05F3CE1000F1200539
:100C600055F826504E07F70E0F26BE40B543CF105D
:100C700000F1200646F82750CE1000F1200555F867
:100C8000265045EA0304CE1000F1200545F8264021
:100C9000F0BD0246002013690B400BB1012000E0BB
:100CA000002070470183704700BFFEE71CB501219B
:100CB000142000F07DF94FF40050009000208DF8D2
:100CC00004008DF8050001208DF8070069460948E9
:100CD000FFF774FF4FF27F50009000208DF8040062
:100CE0008DF8050001208DF8070069460248FFF7DE
:100CF00065FF1CBD00080240001002401CB5012128
:100D0000084600F055F94FF48070009001208DF8EE
:100D1000040000208DF8060003208DF80500012056
:100D20008DF8070069460448FFF748FF4FF48071CB
:100D30000148FFF7B7FF1CBD0000024000BFFEE7FF
:100D40007047000070B5002100230F22C4781CB347
:100D5000174C246804F4E064C4F5E064C4F307218C
:100D6000C1F10404E3B20A4144789C40E1B28478C2
:100D7000144021430C07210E0E4C05786155047870
:100D800004F01F050124AC4005786D11AD0005F19C
:100D9000E025C5F8004109E0047804F01F050124AE
:100DA000AC40054D0678761145F8264070BD000030
:100DB0000CED00E000E400E080E100E002490143C6
:100DC000024A1160704700000000FA050CED00E0D7
:100DD00010B52DED028B08213548FFF75AFF10B9E9
:100DE00034A000F0DDFD10213148FFF752FF10B9AB
:100DF00033A000F0D5FD3548006828B99FED340ACE
:100E0000344880ED000A0BE0304890ED000AB8EE5F
:100E1000400ADFED310A80EE801A2E4880ED001A7C
:100E20002E4801782EA000F0BBFD01212048FFF7DD
:100E300030FF012803D12EA000F0B2FD02E030A067
:100E400000F0AEFD3248007818B932A000F0A8FDDD
:100E50001CE02F480078012803D131A000F0A0FD4C
:100E600014E02B480078022808D130A000F098FD4B
:100E70009FED170A174880ED000A07E02FA000F049
:100E80008FFD9FED130A134880ED000A114800689A
:100E9000FFF796F941EC180B53EC182B2BA000F040
:100EA0007FFD06A000F07CFDBDEC028B10BD0000B4
:100EB00000100240B6D7B5D7D7B4CCAC0D0A0000AD
:100EC000B3E5B6A5D7B4CCAC0D0A00000C000020E9
:100ED00000000000040000200060EA46020000203C
:100EE000B5B1C7B0B2E3CAFD3A25640D0A000000EF
:100EF000B5E7CCDDC3C5B4F2BFAA0D0A00000000FF
:100F0000B5E7CCDDC3C5B9D8B1D50D0A00000000E6
:100F100008000020D5FDD4DAC9CFC9FD0D0A0000B4
:100F2000D5FDD4DACFC2BDB50D0A0000D2D1BEAD19
:100F3000D5FDB3A3CDA3CFC20D0A0000B7C7D5FD21
:100F4000B3A3CDA3CFC20D0A00000000D4CBD0D0F4
:100F5000CBD9B6C8CEAAA3BA25660D0A00000000F8
:100F6000054800780A2805DD0448007840F0400074
:100F700002490870704700000300002001000020B3
:100F8000084890ED000AF0EE000AB4EEE00AF1EE37
:100F900010FA05DD0448007840F0080002490870A6
:100FA000704700000400002001000020704700008E
:100FB00029B1064A12680243044B1A6004E0034A4E
:100FC00012688243014B1A607047000030380240BB
:100FD00029B1064A12680243044B1A6004E0034A2E
:100FE00012688243014B1A6070470000403802408B
:100FF00029B1064A12680243044B1A6004E0034A0E
:1010000012688243014B1A60704700004438024066
:10101000F0B5002100220024022500260223324FD1
:101020003F6807F00C0121B1042905D0082937D108
:1010300005E02E4F076036E02D4F076033E02A4F62
:101040003F1F3F68C7F38056274F3F1F3F6807F099
:101050003F036EB1264FB7FBF3F7DFF88CC0ACF15E
:10106000040CDCF800C0CCF3881C07FB0CF40CE08B
:101070001E4FB7FBF3F7DFF870C0ACF1040CDCF8DF
:1010800000C0CCF3881C07FB0CF4174F3F1F3F68D0
:10109000C7F301477F1C7D00B4FBF5F7076002E052
:1010A000124F076000BF00BF0F4F3F6807F0F0010D
:1010B0000909104F7A5C0768D74047600A4F3F68BC
:1010C00007F4E051890A0B4F7A5C4768D740876084
:1010D000054F3F6807F46041490B064F7A5C47684B
:1010E000D740C760F0BD0000083802400024F4007B
:1010F00000127A001A0000207047000030B500226C
:101100008B071C0F0F2303FA04F20B4B8C1053F8C0
:1011100024309343084C8D1044F8253023468C101E
:1011200053F824308C07240F00FA04F42343024CB4
:101130008D1044F8253030BD083801400CB5002032
:10114000019000903448006840F4803032490860D3
:1011500000BF3148006800F4003000900198401C46
:101160000190009818B90198B0F5A04FF1D12A4824
:10117000006800F4003010B10120009001E0002070
:1011800000900098012846D123484030006840F084
:1011900080502149403108602048006840F44040B8
:1011A0001E4908601C48083000681B490831086067
:1011B0000846006840F4004008600846006840F4B3
:1011C000A05008601648091F0860081F006840F01A
:1011D0008070091F086000BF0F48006800F00070B1
:1011E0000028F9D040F205700E4908600A4808301E
:1011F000006820F0030008490831086008460068CC
:1012000040F00200086000BF03480830006800F0AA
:101210000C000828F8D10CBD0038024000700040D6
:1012200008544007003C024010B52A48007800F0FE
:10123000010060B120212848FFF72BFD012803D1D0
:1012400026A000F0ADFB02E02AA000F0A9FB214897
:10125000007800F0020060B120211F48FFF719FD5F
:10126000012803D129A000F09BFB02E02DA000F093
:1012700097FB1848007800F0040010B12FA000F090
:101280008FFB1448007800F0080010B132A000F085
:1012900087FB1048007800F0100010B131A000F07A
:1012A0007FFB0C48007800F0200010B130A000F067
:1012B00077FB0848007800F0400010B131A000F042
:1012C0006FFB0448007800F0800010B132A000F0FD
:1012D00067FB10BD0100002000100240C7F8D3F2E8
:1012E000CDE2CDA3CCDD28D3D0C8CB29B9CAD5CF88
:1012F0000D0A0000C7F8D3F2CDE2CDA3CCDD28CE95
:10130000DEC8CB29B9CAD5CF0D0A0000D4CBD0D0C6
:10131000D6D0BFAAC3C528D3D0C8CB29B9CAD5CF88
:101320000D0A0000D4CBD0D0D6D0BFAAC3C528CEDA
:10133000DEC8CB29B9CAD5CF0D0A0000BFAAC3C5E4
:10134000D7B4CCACCFC2BFAACABCD4CBD0D0B9CA58
:10135000D5CF0D0A00000000B5E7CCDDB3ACCBD98A
:101360000D0A0000C6BDB2E3C0A7C8CB0D0A00003D
:10137000B3A4CAB1BCE4BFAAC3C5B9CAD5CF0D0ACC
:1013800000000000B7B4B8B4BFAAB9D8C3C5B9CA81
:10139000D5CF0D0A00000000CAD6B6AFB1A8BEAFC7
:1013A0000D0A0000042808D14FF0E021096941F03E
:1013B00004014FF0E022116107E04FF0E0210969DC
:1013C00021F004014FF0E0221161704770470000E6
:1013D00010B51548006840F47000134908601348C0
:1013E000006840F001001149086000200F490831F1
:1013F00008600E4800680E4908400C4908600D4816
:10140000091D0860081F006820F48020091F08607B
:10141000002006490C310860FFF790FE4FF0006095
:1014200001498039086010BD88ED00E000380240B5
:10143000FFFFF6FE1030002410B50121880700F0F0
:101440002EF901280BD10848007840F00100064928
:101450000870002005490860032005490870012133
:10146000880700F00DF910BD010000200C000020DD
:10147000080000207FB505460C4601210846FFF70D
:10148000A7FD0295ADF804400020ADF80600ADF8C8
:101490000C0001A94FF0804000F01CF901218807E1
:1014A00000F0EEF801221146900700F009F91C2027
:1014B0008DF8000002208DF801008DF80200012057
:1014C0008DF803006846FFF73DFC0121880700F016
:1014D000DAF87FBD10B50121094800F0E0F80128D5
:1014E00008D1084908700021054800F0CCF8022016
:1014F000054908700121024800F0C2F810BD000043
:101500000004004000000020080000207FB50546D0
:101510000C4601210220FFF75BFD0295ADF8044067
:101520000020ADF80600ADF80C0001A90B4800F052
:10153000D1F801221146094800F0C2F81D208DF8AB
:10154000000002208DF8010001208DF802008DF8C6
:1015500003006846FFF7F6FB7FBD00000004004073
:1015600010B50121094800F09AF8012809D108486E
:10157000007840F01000064908700021034800F090
:1015800082F80121014800F07BF810BD000C0040FA
:10159000010000207FB505460C4601210820FFF719
:1015A00017FD0295ADF804400020ADF80600ADF837
:1015B0000C0001A90D4800F08DF801210B4800F046
:1015C0005FF801221146094800F07AF832208DF8C0
:1015D000000002208DF8010003208DF80200012098
:1015E0008DF803006846FFF7ADFB7FBD000C00409F
:1015F00010B50121094800F052F8012809D1084826
:10160000007840F02000064908700021034800F0EF
:101610003AF80121014800F033F810BD00140040F1
:10162000010000207FB505460C4601212020FFF770
:10163000CFFC0295ADF804400020ADF80600ADF8EF
:101640000C0001A90D4800F045F801210B4800F0FD
:1016500017F801221146094800F032F837208DF8BA
:10166000000002208DF8010003208DF80200012007
:101670008DF803006846FFF765FB7FBD001400404E
:10168000CA430282704721B1028842F001020280FF
:1016900004E002884FF6FE731A400280704730B5AE
:1016A0000246002000230024158A05EA01039589DB
:1016B00005EA010413B10CB1012000E0002030BDA7
:1016C0001AB183890B43838102E083898B43838131
:1016D0007047000000220288184B98420ED0184B29
:1016E00098420BD0B0F1804F08D0164B984205D0ED
:1016F000154B984202D0154B984204D14FF68F7388
:101700001A404B881A43124B984207D0114B98420B
:1017100004D04FF6FF431A400B891A4302804B68EE
:10172000C3620B880385054B984202D0044B984254
:1017300001D18B7A03860123838270470000014028
:10174000000401400004004000080040000C00407C
:10175000001000400014004010B540F225511D4813
:1017600000F04AF810B31B4800F000F9C4B21A4860
:10177000008800F40040C8B91748008800F4804091
:1017800060B10A2C03D000201349088020E01248E1
:10179000008840F400401049088019E00D2C06D163
:1017A0000D48008840F480400B49088010E00A484A
:1017B0000088C0F30D0009490C5407480088401CFC
:1017C0000549088008460088C72801DD00200880F8
:1017D00010BD000000100140180000202C00002067
:1017E00021B1828942F40052828104E082894DF65F
:1017F000FF731A408281704770B5024600240023AF
:101800000025002040F66A16B14200D100BFC1F3A6
:10181000421501F01F03012606FA03F3012D02D140
:101820009689334006E0022D02D1168A334001E04A
:10183000968A33400C12012606FA04F416883440C6
:1018400013B10CB1012000E0002070BDF0B50346DB
:10185000002400260025002040F66A17B94200D176
:1018600000BF1846C1F3421401F01F06012707FA12
:1018700006F5012C01D10C3004E0022C01D110300E
:1018800000E014301AB107682F43076002E00768D0
:10189000AF430760F0BD00002DE9FF4705460E4647
:1018A0000024A14600BFA046B08900B100BF2C8A29
:1018B00024F44054F08804432C82AC8941F20C603B
:1018C0008443B08831890843718908430443AC815B
:1018D000AC8A24F44074B0890443AC826846FFF7B4
:1018E00097FB2048854202D01F48854202D1DDF88F
:1018F0000C9001E0DDF80890A88900F4004040B1A8
:1019000009EBC90000EB091031684900B0FBF1F7A1
:1019100007E009EBC90000EB091031688900B0FB52
:10192000F1F76420B7FBF0F004012009642101FB0A
:101930001078A88900F4004040B1322000EBC800C4
:10194000B0FBF1F000F00700044308E0322000EBA8
:1019500008106421B0FBF1F000F00F0004432C816B
:10196000BDE8FF870010014000140140014688884F
:10197000C0F30800704700BFFEE7000010B540212B
:101980000548FFF786F9012805D10448007840F0A2
:1019900080000249087010BD0010024001000020C4
:1019A0000FB4054B10B503A9044A029800F0DAF809
:1019B00010BC5DF814FB0000552300081400002043
:1019C00002E008C8121F08C1002AFAD17047704708
:1019D000002001E001C1121F002AFBD17047000066
:1019E0002DE9FF5F82B00021DDE90430020DDDF852
:1019F00040B0034318D044F61050A2F2FF324243E5
:101A00001514119801281FD0A5EB0B00401C5FEAAC
:101A1000000A4FF000064E4FDFF83891B0465046AE
:101A200015D5CAF1000413E0119801244AA3012836
:101A300001D16FEA0B010298119AC0E90031C0E9A7
:101A4000024206B0BDE8F09FCBF10000DFE704469C
:101A50000021404A491842EB0450CDE9001012E041
:101A6000E00707D032463B4640464946FEF7A9FC10
:101A70008046894632463B4610461946FEF7A1FC91
:101A800006460F466410002CEAD1DDE90401DDE9C9
:101A90000023BAF1000F06DAFEF793FC42464B46EC
:101AA000FEF78FFC05E0FEF7FEFC42464B46FEF7D4
:101AB000FAFC04460E460022284BFEF77BFD03D8B5
:101AC0004FF0FF30014607E00022254B204631460B
:101AD000FEF7D0FBFEF756FD102409E0002C0ADBD0
:101AE0000A220023FEF795FB039B30321A55641E31
:101AF00050EA0102F2D1641C039AC4F111031444A8
:101B0000119A012A03D0012208430DD10AE00843AB
:101B100004D000204FF0110B119072E7A3EB0B05DE
:101B20006D1E0DE05B4504DD4FF0000205F101057F
:101B300004E003DA4FF00002A5F10105002AECD021
:101B400002981199C0E90231C0E9004579E7000027
:101B5000000014400000F03F300000000000F0439F
:101B60000000E03F2DE9FF4F95B09B4689460646B1
:101B700000250FE2252877D100242746F84A0121C5
:101B8000059400E0044316F8013F203B01FA03F0FE
:101B90001042F7D130782A2811D06FF02F03307817
:101BA000A0F13002092A16D8059A44F0020402EB8B
:101BB000820203EB42021044761C0590EFE759F8CD
:101BC000042B0592002A03DA504244F40054059095
:101BD00044F00204761C30782E2816D116F8010F36
:101BE00044F004042A280DD06FF02F023078A0F1C1
:101BF0003003092B09D807EB870302EB4303C7180F
:101C0000761CF3E759F8047B761C30786C280FD0EB
:101C100006DC4C2817D068280DD06A2814D104E0BF
:101C2000742810D07A280FD10DE044F400140AE093
:101C300044F4801401E044F440147278824202D1EA
:101C400004F58014761C761C307866280BD013DCE3
:101C5000582877D009DC002875D04528F6D04628CA
:101C6000F4D047281AD19DE118E0632835D06428C4
:101C700079D0652812D195E1702873D008DC6728E7
:101C8000F1D069286FD06E280DD06F2806D1B5E04D
:101C900073282CD0752875D0782874D05A46179997
:101CA00090476D1C75E1C4F30250022809D0032847
:101CB0000DD0D9F8001004280DD00D6009F10409E9
:101CC00067E1D9F80010EA17C1E90052F6E7D9F840
:101CD00000100D80F2E70D70F0E719F8041B8DF885
:101CE000001000208DF80100EA46012003E059F8B9
:101CF00004AB4FF0FF3061074FF0000102D40DE05C
:101D000008F101018846B9420FDA8045F8DB1AF87C
:101D100008100029F4D108E008F101018846814249
:101D2000FADB1AF808100029F6D105985B46A0EBFB
:101D3000080721463846179A00F094FA284400EB29
:101D4000080507E04DE029E10DE01AF8010B5A46BD
:101D500017999047B8F10108F7D25B4621463846FB
:101D6000179A13E142E00A220092C4F302524FF0A4
:101D7000000A022A08D059F804CB032A4FEAEC7172
:101D80000AD00DE029E02AE009F1070121F007025D
:101D9000F2E802C1914609E00FFA8CFC4FEAEC71BF
:101DA000042A03D14FFA8CFC4FEAEC71002907DAC0
:101DB0000A460021DCF1000C61EB02012D2202E059
:101DC000220504D52B228DF80420012203E0E2072E
:101DD00001D02022F7E7904659E00A2102E01022C4
:101DE0000DE010214FF0000A00910BE010224FF09F
:101DF000000A44F004040827009203E008224FF090
:101E0000000A0092C4F30252022A05D059F804CB0A
:101E10000021032A08D009E009F1070121F0070297
:101E2000F2E802C1914605E01FFA8CFC042A01D1B8
:101E30000CF0FF0C4FF00008220728D5702806D0C0
:101E4000009B83F0100353EA0A0305D00EE0402202
:101E50008DF80420012208E05CEA010206D030225D
:101E60008DF804208DF8050002229046009B83F037
:101E7000080353EA0A030AD15CEA010201D16207AE
:101E800005D530228DF804204FF001087F1E582818
:101E900004D034A003900EA802900DE036A0F9E71C
:101EA00053466046009AFEF7B4F984460398825C74
:101EB0000298401E029002705CEA0100F0D1029884
:101EC00006A9081A00F1200A600702D524F480341C
:101ED00000E00127574502DDA7EB0A0000E00020E3
:101EE00000EB0A01009005984144401A0590E00378
:101EF00006D45B462146179A059800F0B3F90544CD
:101F0000002706E001A85A46C05D179990476D1C4E
:101F10007F1C4745F6DBE0030CD55B462146179A4C
:101F2000059800F09FF9054404E030205A461799BF
:101F300090476D1C0099481E00900029F5DC08E0D0
:101F4000029802995A460078491C029117999047C5
:101F50006D1CBAF10001AAF1010AF1DC65E1000093
:101F6000092801003031323334353637383961626F
:101F70006364656600000000303132333435363733
:101F800038394142434445460000000000F058F90A
:101F90000544761C307800287FF4ECAD19B0284653
:101FA000BDE8F08F620700D4062709F1070222F08E
:101FB000070CFCE80223E14603F000485FEA080C46
:101FC00002D00FF2702C0DE05FEA045C02D50FF234
:101FD000682C07E05FEAC47C02D00FF2602C01E0BD
:101FE000AFF2700C4FF0FF3823F00043CDF850C033
:101FF00065280CD006DC452809D046281DD0472886
:102000003DD13DE0662818D067287ED138E0002118
:10201000112F01DB112000E0781CCDE9000106A999
:102020000EA8FFF7DDFCDDE90F010E9A03910021F8
:10203000009207F1010A04914DE04FF00040009733
:10204000CDE9011006A90EA8FFF7CAFCDDE90F02D1
:1020500003920E9B11990022DDF80CA000930492CC
:1020600011B9791C00EB010AB7EB0A0004D4C0F1E6
:10207000FF3007F1010A0490AAEB0700019044E049
:10208000012F00DA01270021112F01DD112000E0CE
:102090003846CDE9000106A90EA8FFF7A1FCDDE94D
:1020A0000F010E9A0391002104910092BA46210774
:1020B0000CD40399514500DA8A46BAF1010F05DDC7
:1020C000009AAAF10101515C302908D0B84202DA25
:1020D00010F1040F06DA0121CDE9011015E0AAF193
:1020E0000101E9E7002805DC049901440491AAEB09
:1020F000000102E0411C514500DD8A460499401A66
:10210000401C01904FF000400290200704D4019839
:10211000504501DBCDF8048000208DF84F00029877
:102120000DF14F07B0F1004F25D02B200E900298F3
:102130004FF0020800280CDA404202902D200E9049
:1021400007E00A210298FEF74EF83031029007F8B6
:10215000011DB8F10001A8F10108F2DC0298002885
:10216000EFD1791E0E980870307800F0200040F012
:10217000450007F8020D12A8C01B00F107081498CB
:10218000007800B1012000EB0A01019801EBE07139
:1021900005984144401A401E0590E00306D45B4672
:1021A0002146179A059800F05DF8054414980078C8
:1021B00018B15A46179990476D1CE00324D55B4629
:1021C0002146179A059800F04DF805441CE0049844
:1021D000002807DBDDE90301884203DD0098405C4D
:1021E000179901E0179930205A469047049805F155
:1021F0000105401C04900198401E019004D12E203E
:102200005A46179990476D1CBAF10001AAF1010ACC
:10221000DDDC05E017F8010B5A46179990476D1C55
:10222000B8F10001A8F10108F4DC5B462146179AD9
:102230000598ABE62D0000002B00000020000000F8
:102240002DE9F041044600251E461746880404D4B3
:1022500005E039462020B0476D1C641EF9D528469C
:10226000BDE8F0812DE9F041044600251E46904668
:10227000C80301D5302700E02027880404D505E0F5
:1022800041463846B0476D1C641EF9D52846BDE866
:10229000F081000010B504466FF00400FFF782F8EB
:1022A000E11704EB5171C1F3C701074A11701046E1
:1022B000007800EB4001C1EBC0104FF6FF7101EA5E
:1022C000C0000249088010BD10000020120000204C
:1022D00070B504464FF4077094FBF0F0C6B24FF4AB
:1022E000077094FBF0F100FB114085B205E04FF45C
:1022F000077000F009F8701EC6B2002EF7D115B1B4
:10230000284600F001F870BD0146114A12884A4380
:102310004FF0E0235A6100229A611A46126942F096
:1023200001021A6100BF4FF0E022106900F00102C3
:102330001AB100F48032002AF5D04FF0E022126981
:1023400022F001024FF0E0231A6100229A617047E7
:102350001200002000BF054A128802F04002002A45
:10236000F9D0C2B2014B9A807047000000100140C2
:10237000A820FFF78FFF4FF4A060FEF71FFDFEF7C8
:10238000BDFCFEF77BFB42F2CF014CF24F30FFF772
:1023900071F842F2CF0142F20F70FFF7B7F842F244
:1023A000CF0149F63F40FFF7F5F842F2CF0149F679
:1023B0003F40FFF737F94FF4E13000F031F80EA05D
:1023C000FFF7EEFA16E0FEF703FDFEF7D9FDFEF784
:1023D000C7FDFFF7D3FAFEF727FF01200E4908607B
:1023E0006420FFF775FF00200C49C1F8A0026420AB
:1023F000FFF76EFFE7E700000D0A2057656C636F7B
:102400006D6520746F207573652053544D333246CB
:10241000343037200D0A0000A00240420000404244
:1024200010B588B0044601210846FEF7C1FD012120
:102430001020FEF7DDFD072209212248FEF706FCE9
:1024400007220A211F48FEF701FC4FF4C0600690E6
:1024500002208DF81C008DF81D0000208DF81E0054
:1024600001208DF81F0006A91648FEF7A7FB02946D
:102470000020ADF80C00ADF80E00ADF81000ADF87E
:1024800014000C20ADF8120002A90F48FFF704FA5F
:1024900001210D48FFF7A4F9012240F225510A4815
:1024A000FFF7D4F925208DF8040003208DF80500EE
:1024B0008DF8060001208DF8070001A8FEF742FC08
:1024C00008B010BD0000024000100140EC240008DC
:1024D000000000202C000000C0190008182500088A
:1024E0002C000020CC040000D019000801000300DB
:1024F00000000000020000000000000000000000DA
:1025000000000000000000000000010203040102BE
:0825100003040607080900009E
:040000050800018965
:00000001FF
