:020000040800F2
:10000000F80400209D010008610E0008C90D0008D9
:100010005D0E00084B0800084F17000800000000A4
:100020000000000000000000000000003D1000087B
:100030004F08000800000000F10E000895110008AC
:10004000B7010008B7010008B7010008B7010008B0
:10005000B7010008B701000851080008D1080008DE
:10006000110A0008B7010008B7010008B70100082D
:10007000B7010008B7010008B7010008B701000880
:10008000B7010008B7010008B7010008B701000870
:10009000B7010008B7010008B7010008B701000860
:1000A000B7010008B7010008B7010008B701000850
:1000B000B701000835120008C1120008B701000896
:1000C000B7010008B7010008B7010008B701000830
:1000D000B701000831150008B7010008B701000892
:1000E000B7010008B7010008B7010008B701000810
:1000F000B7010008B7010008B7010008B701000800
:10010000B7010008B701000849130008B70100084B
:10011000B7010008B7010008B7010008D1130008B3
:10012000B7010008B7010008B7010008B7010008CF
:10013000B7010008B7010008B7010008B7010008BF
:10014000B7010008B7010008B7010008B7010008AF
:10015000B7010008B7010008B7010008B70100089F
:10016000B7010008B7010008B7010008B70100088F
:10017000B7010008B7010008B7010008B70100087F
:10018000B7010008B7010008DFF80CD000F0FAFA58
:10019000004800476D2F0008F804002006488047FB
:1001A00006480047FEE7FEE7FEE7FEE7FEE7FEE75C
:1001B000FEE7FEE7FEE7FEE7991100088901000867
:1001C0002DE9FE4F804681EA0300C00F0C460090E7
:1001D00021F0004123F00045B8EB0200A94105D20F
:1001E0004046214690461C460B46024623F00040FE
:1001F000104347D0270DC7F30A00C3F30A510290FA
:10020000401A019040286BDAC3F3130040F4801BBE
:100210000098924620B10023D2EB030A63EB0B0B4C
:1002200001985946C0F14002504600F0E3F80646F6
:100230000D4650465946019A00F0FBF810EB0800B5
:100240006141002487EA115284EAE7731A4340D0DF
:10025000009A62B3019A012A4FEA075215DC001B8B
:1002600061EB02014FF0004202EA0752CDE9004281
:10027000001C41F5801132462B4600F0FBF803B01C
:10028000BDE8F08F40462146F9E7001B61EB020113
:10029000001C41F5801300185B412018A2F50017DF
:1002A00047EB030140EAD570B6196D4111E06D08C6
:1002B0004FEA360645EAC0754FEA0752001B61EB6C
:1002C0000201001C41F5801149084FEA3000001975
:1002D000514132462B4603B0BDE8F04F00F0BBB8A9
:1002E0000098012240000023D0EB020263EBE07390
:1002F000009821464FEAE074B8EB000061EB04017E
:10030000E9E783F000435BE781F0004158E7C1F380
:100310000A5210B5C1F3130140F2FF3341F48011CA
:100320009A4201DA002010BD40F233439A42A2F211
:10033000334203DC524200F06CF810BD904010BD17
:1003400000F0004230F000400AD0C10D01F56071AC
:10035000C0F3160042EA0151C2084007114370473A
:1003600000200146704730B50B4601460020202290
:10037000012409E021FA02F59D4205D303FA02F5B2
:10038000491B04FA02F52844151EA2F10102F1DC12
:1003900030BD2DE9F05F0546002092469B46884619
:1003A0000646814640241BE02846414647462246F1
:1003B00000F02FF853465A46C01A914110D3114607
:1003C0001846224600F016F82D1A67EB01084F4632
:1003D00022460120002100F00DF817EB00094E41E4
:1003E000201EA4F10104DFDC484631462A4643467C
:1003F000BDE8F09F202A04DB203A00FA02F1002039
:1004000070479140C2F1200320FA03F31943904052
:100410007047202A04DB203A21FA02F000217047BD
:1004200021FA02F3D040C2F120029140084319465C
:100430007047202A06DBCB17203A41FA02F043EA44
:10044000E07306E041FA02F3D040C2F1200291408D
:1004500008431946704710B5141E73F1000408DAFA
:10046000401C41F1000192185B411A4301D120F078
:10047000010010BD2DE9F04D92469B4611B1B1FA35
:1004800081F202E0B0FA80F220329046FFF7B2FF2C
:1004900004460F4640EA0A0041EA0B0153465A4619
:1004A000084313D0114653EA010019D0C8F14002A5
:1004B0005046FFF7AEFF05460E46504659464246A7
:1004C000FFF798FF084305D0012004E02046394695
:1004D000BDE8F08D0020054346EAE0762C43374323
:1004E0000A986305E40AA0EB08000022FD0A44EA2A
:1004F00047540A3002D500200146E9E701051019EA
:100500006941DDE9084500196941BDE8F04DA2E700
:100510002DE9FE4F81EA030404F0004421F000417C
:1005200000944FF0000B23F0004350EA01045ED02A
:1005300052EA03045BD0C3F30A54C1F30A552C44B6
:10054000A4F2F3340194A0FB0254C1F3130141F46B
:100550008011C3F3130343F4801301FB024400FB37
:10056000034E840A970A44EA815447EA8357A4FB5E
:10057000076802958D0A05FB07854FEA932C04FB5B
:100580000C542705029D4FEA065847EA1637B5EB8B
:1005900008056EEB070C870E920E47EA811742EAB8
:1005A0008312A7FB0201B6EB0B0164EB00042B0DD9
:1005B00043EA0C335E1844EB1C50DA465146E7FB25
:1005C0000201C5F313044FEA0B3343EA14534FEA15
:1005D0000432019C43EA0603A4F10C040294009C3B
:1005E000CDE900B4FFF746FF03B0BDE8F08F00206F
:1005F0000146F9E72DE9F04D81EA030404F0004BD0
:1006000021F0004514464FF0000A23F0004150EA63
:10061000050220D054EA01021DD0C5F30A57024654
:10062000C5F31303C1F31300C1F30A5640F4801558
:1006300043F48013A7EB0608101BD64608F2FD38DA
:1006400073EB050002D308F1010801E092185B4149
:10065000B8F1000F03DA00200146BDE8F08D00205C
:100660004FF48011064684460EE0171B73EB050716
:1006700005D3121B63EB050306434CEA010C490842
:100680004FEA300092185B4150EA0107EDD152EA7F
:10069000030012D082EA040083EA0501084305D072
:1006A000101BAB4106D20122002306E000224FF0CE
:1006B000004302E06FF0010253101AEB06004CEB0E
:1006C000085110EB0A0041EB0B01BDE8F04DFFF7BC
:1006D000C2BE70B521F0004303430CD0C1F30A55EC
:1006E0000024D5EB040564EB0403D617AD1AB3411F
:1006F00002DB0020014670BD201841EB025170BDA5
:100700000EB5C10F80EAE0700844CA07002140F22C
:1007100033438DE80E000A460B46FFF7ABFE03B0ED
:1007200000BDC1F30A52C1F3130140F2FF3341F49B
:1007300080119A4202DA00200146704740F23343AA
:100740009A42A2F2334202DC5242FFF762BEFFF746
:1007500051BE000030B5041E71F1000404DB4FF0FF
:100760000044404264EB0101141E73F1000405DBF8
:100770001C464FF00043524263EB0403994208BF0A
:10078000904230BD064C074D06E0E06840F00103A2
:1007900094E8070098471034AC42F6D3FFF7F8FC12
:1007A00058330008783300082DE9F04D00231A462D
:1007B0001B1A8A4103DB00200146BDE8F08DC1F31E
:1007C0000A52C1F3130141F480154FF0000BD10719
:1007D00002D100186D41521E0027044640F2FF115D
:1007E000384601EB620A3E468046024600204FF43E
:1007F0008011FFF70EFEC2197141BB1846EB0100D4
:10080000B4EB030C75EB000C04D3E41A65EB0005A4
:1008100017460E46241908F101006D418046342820
:10082000E3DDF91946EB0600091BA84103D24FF09E
:10083000FF32134601E0002213461BEB070046EB94
:100840000A51BDE8F04DFFF706BE00BFFEE7704756
:1008500010B50121194800F0ACFAF0B90020184990
:10086000086000211648243800F0F9FD154800788A
:1008700000B31448007801281CD013480078401CAD
:100880001149087020210D4800F093FA012811D178
:1008900001210E4800F0E3FD0CE001210848243856
:1008A00000F0DDFD002009492431086000210748DF
:1008B00000F0D5FD012000F0C1F910BD001002408C
:1008C000241400400800002003000020000C004019
:1008D00010B50221454800F06CFA012837D10421F7
:1008E000424800F066FA30B941480078032802D146
:1008F00004203F49087004213C4800F05AFA0128BE
:1009000070D13B48007807286CD100203849087026
:100910000121384800F0A3FD00203749086000217C
:100920003548243800F09BFD3448007828B9344815
:100930000078401C3249087054E0304800780128A3
:1009400050D12F480078401E2D4908704AE00421FC
:10095000264800F02EFA012830D1254800780128D9
:1009600006D02348007818B121480078052825D101
:100970001F48007801280BD101211C4800F019FA0A
:10098000012805D11F48007840F004001D49087077
:1009900002201749087000201849087001211648E4
:1009A000243800F05CFD002017490860002116483B
:1009B000243800F054FD00201449087004210B482D
:1009C00000F0F7F970B90A48007805280AD100202C
:1009D0000849243108600021064800F040FD062047
:1009E00003490870022000F029F910BD00100240F0
:1009F00000000020000400402408004008000020FF
:100A00000200002001000020240C00400300002010
:100A100010B50421574800F0CCF901284BD1022130
:100A2000544800F0C6F901282DD153480078042815
:100A300029D10020504908705049086000214F48D2
:100A4000243800F00CFD01214D4800F008FD002184
:100A50004FF0804000F003FD4FF08040406A49496C
:100A600008604948007828B948480078401C474940
:100A7000087008E044480078012804D14348007811
:100A8000401E4249087002213A4800F092F90028BD
:100A90006CD139480078062868D100214FF0804099
:100AA00000F0DDFC4FF08040406A364908600720C6
:100AB000314908705AE002212E4800F07AF9B0B9A5
:100AC0002D480078022812D100202D4924310860D9
:100AD00000212B4800F0C3FC00204FF08041486209
:100AE0000121880700F0BBFC032023490870022184
:100AF000204800F05EF9012838D11F48007801280D
:100B000006D01D48007818B11B48007802282DD166
:100B100000204FF0804148620121880700F09FFCCF
:100B20001548007801280BD10121124800F041F945
:100B3000012805D11648007840F0040014490870D7
:100B400005200D49087001200F49087001210B484C
:100B5000243800F084FC00200E49086000210D4874
:100B6000243800F07CFC00200B490870042000F0C1
:100B700065F810BD0010024000000020240800406D
:100B8000000400400C0000200800002002000020AB
:100B900001000020240C0040030000200EB500F0EE
:100BA00015F90121880300F0C5F90121042000F0A6
:100BB00047FA0221042000F043FA0021042000F04B
:100BC0003FFA0E20009000208DF8040010208DF8D0
:100BD000050001208DF80600684600F035F8072072
:100BE0008DF8080001208DF8090002208DF80A0018
:100BF00001208DF80B0002A800F034F908208DF8D0
:100C0000080001208DF8090002208DF80A0001205B
:100C10008DF80B0002A800F025F906208DF80800D9
:100C200001208DF8090003208DF80A0001208DF8BD
:100C30000B0002A800F016F90EBD00000149086083
:100C400070470000143C0140002123498279002AAA
:100C50003AD00A46126803689A430B461A600A1D86
:100C6000126803689A430B1D1A60027911440A68DE
:100C700003681A430A60184A0832126803689A43E4
:100C8000154B08331A601A1D126803689A43124BF9
:100C90000C331A604279102A0ED11A1F12680368A9
:100CA0001A430D4B08331A601A1D126803681A4361
:100CB000094B0C331A600DE00749427911440A6868
:100CC00003681A430A6005E0027911440A68036860
:100CD0009A430A6070470000003C0140F0B50A46A4
:100CE00000210023002400BF3DE0012505FA01F3A7
:100CF000156805EA03049C4234D105684F000326B9
:100D0000BE40B543056015794E00B54006683543D1
:100D100005601579012D02D01579022D16D185684F
:100D20004F000326BE40B543856055794E00B5405F
:100D3000866835438560456801268E40B543456029
:100D4000456896798E40B6B235434560C5684F0018
:100D50000326BE40B543C560D5794E00B540C66890
:100D60003543C560491C1029BFD3F0BDF0B5002341
:100D700000244D07ED0E02FA05F3CE1000F1200518
:100D800055F826504E07F70E0F26BE40B543CF103C
:100D900000F1200646F82750CE1000F1200555F846
:100DA000265045EA0304CE1000F1200545F8264000
:100DB000F0BD0246002013690B400BB1012000E09A
:100DC000002070470183704700BFFEE71CB501217A
:100DD000142000F08FF84FF40050009000208DF8A0
:100DE00004008DF8050001208DF8070069460948C8
:100DF000FFF774FF4FF27F50009000208DF8040041
:100E00008DF8050001208DF8070069460248FFF7BC
:100E100065FF1CBD00080240001002401CB5012106
:100E2000084600F067F84FF48070009001208DF8BC
:100E3000040000208DF8060003208DF80500012035
:100E40008DF8070069460448FFF748FF4FF48071AA
:100E50000148FFF7B7FF1CBD0000024000BFFEE7DE
:100E60007047000070B5002100230F22C4781CB326
:100E7000174C246804F4E064C4F5E064C4F307216B
:100E8000C1F10404E3B20A4144789C40E1B28478A1
:100E9000144021430C07210E0E4C0578615504784F
:100EA00004F01F050124AC4005786D11AD0005F17B
:100EB000E025C5F8004109E0047804F01F0501248D
:100EC000AC40054D0678761145F8264070BD00000F
:100ED0000CED00E000E400E080E100E002490143A5
:100EE000024A1160704700000000FA050CED00E0B6
:100EF0007047000029B1064A12680243044B1A6089
:100F000004E0034A12688243014B1A6070470000F4
:100F10003038024029B1064A12680243044B1A6075
:100F200004E0034A12688243014B1A6070470000D4
:100F30004038024029B1064A12680243044B1A6045
:100F400004E0034A12688243014B1A6070470000B4
:100F500044380240F0B5002100220024022500267A
:100F60000223324F3F6807F00C0121B1042905D05C
:100F7000082937D105E02E4F076036E02D4F076076
:100F800033E02A4F3F1F3F68C7F38056274F3F1F6C
:100F90003F6807F03F036EB1264FB7FBF3F7DFF86A
:100FA0008CC0ACF1040CDCF800C0CCF3881C07FB4F
:100FB0000CF40CE01E4FB7FBF3F7DFF870C0ACF198
:100FC000040CDCF800C0CCF3881C07FB0CF4174FB2
:100FD0003F1F3F68C7F301477F1C7D00B4FBF5F757
:100FE000076002E0124F076000BF00BF0F4F3F686D
:100FF00007F0F0010909104F7A5C0768D740476095
:101000000A4F3F6807F4E051890A0B4F7A5C476842
:10101000D7408760054F3F6807F46041490B064F92
:101020007A5C4768D740C760F0BD000008380240CE
:101030000024F40000127A001A000020704700001B
:1010400030B500228B071C0F0F2303FA04F20B4B61
:101050008C1053F824309343084C8D1044F82530FD
:1010600023468C1053F824308C07240F00FA04F424
:101070002343024C8D1044F8253030BD0838014020
:101080000CB50020019000903448006840F4803096
:101090003249086000BF3148006800F40030009019
:1010A0000198401C0190009818B90198B0F5A04F24
:1010B000F1D12A48006800F4003010B101200090FE
:1010C00001E0002000900098012846D123484030DC
:1010D000006840F080502149403108602048006895
:1010E00040F440401E4908601C48083000681B4915
:1010F000083108600846006840F40040086008466F
:10110000006840F4A05008601648091F0860081FD6
:10111000006840F08070091F086000BF0F48006839
:1011200000F000700028F9D040F205700E49086008
:101130000A480830006820F00300084908310860B8
:101140000846006840F00200086000BF034808300D
:10115000006800F00C000828F8D10CBD00380240EF
:101160000070004008544007003C0240042808D1A9
:101170004FF0E021096941F004014FF0E0221161D4
:1011800007E04FF0E021096921F004014FF0E0226F
:10119000116170477047000010B51548006840F4B1
:1011A0007000134908601348006840F001001149BD
:1011B000086000200F49083108600E4800680E4999
:1011C00008400C4908600D48091D0860081F0068A8
:1011D00020F48020091F0860002006490C310860B7
:1011E000FFF74EFF4FF0006001498039086010BDE5
:1011F00088ED00E000380240FFFFF6FE10300024CA
:101200003EB505460C4601210846FFF783FE0195D1
:10121000ADF800400020ADF80200ADF808006946C6
:101220004FF0804000F042F900214FF0804000F084
:1012300016F93EBD10B50121094800F01CF901283E
:1012400008D1084908700021054800F008F902207B
:10125000054908700121024800F0FEF810BD0000A9
:101260000004004000000020080000207FB5054673
:101270000C4601210220FFF74DFE0295ADF8044017
:101280000020ADF80600ADF80C0001A90B4800F0F5
:101290000DF901221146094800F0FEF81D208DF8D5
:1012A000000002208DF801008DF8020001208DF869
:1012B00003006846FFF7D6FD7FBD00000004004034
:1012C00010B50121094800F0D6F8012809D10848D5
:1012D000007840F00100064908700021034800F042
:1012E000BEF80121014800F0B7F810BD0008004029
:1012F000010000207FB505460C4601210420FFF7C0
:1013000009FE0295ADF804400020ADF80600ADF8E6
:101310000C0001A90B4800F0C9F801221146094848
:1013200000F0BAF81E208DF8000002208DF80100B0
:1013300003208DF8020001208DF803006846FFF7B6
:1013400091FD7FBD0008004010B50121094800F063
:1013500092F8012809D10848007840F010000649A9
:1013600008700021034800F07AF80121014800F0DC
:1013700073F810BD000C0040010000207FB5054649
:101380000C4601210820FFF7C5FD0295ADF8044089
:101390000020ADF80600ADF80C0001A90B4800F0E4
:1013A00085F801221146094800F076F837208DF8BB
:1013B000000002208DF8010003208DF802000120BA
:1013C0008DF803006846FFF74DFD7FBD0014004017
:1013D00010B50121094800F04EF8012809D108484C
:1013E000007840F02000064908700021034800F012
:1013F00036F80121014800F02FF810BD001400401C
:10140000010000207FB505460C4601212020FFF792
:1014100081FD0295ADF804400020ADF80600ADF85E
:101420000C0001A90B4800F041F8012211460948BF
:1014300000F032F837208DF8000002208DF801000E
:1014400003208DF8020001208DF803006846FFF7A5
:1014500009FD7FBD00140040CA430282704721B1DC
:10146000028842F00102028004E002884FF6FE7317
:101470001A400280704730B5024600200023002445
:10148000158A05EA0103958905EA010413B10CB137
:10149000012000E0002030BD1AB183890B43838115
:1014A00002E083898B438381704700000022028819
:1014B000184B98420ED0184B98420BD0B0F1804F89
:1014C00008D0164B984205D0154B984202D0154BC8
:1014D000984204D14FF68F731A404B881A43124B2F
:1014E000984207D0114B984204D04FF6FF431A4060
:1014F0000B891A4302804B68C3620B880385054B36
:10150000984202D0044B984201D18B7A0386012382
:101510008382704700000140000401400004004045
:1015200000080040000C0040001000400014004083
:1015300010B540F225511D4800F04AF810B31B4881
:1015400000F000F9C4B21A48008800F40040C8B99D
:101550001748008800F4804060B10A2C03D00020B6
:101560001349088020E01248008840F400401049E8
:10157000088019E00D2C06D10D48008840F4804009
:101580000B49088010E00A480088C0F30D000949A3
:101590000C5407480088401C05490880084600880C
:1015A000C72801DD0020088010BD000000100140A8
:1015B000180000203000002021B1828942F400523E
:1015C000828104E082894DF6FF731A408281704760
:1015D00070B50246002400230025002040F66A165C
:1015E000B14200D100BFC1F3421501F01F03012633
:1015F00006FA03F3012D02D19689334006E0022D4D
:1016000002D1168A334001E0968A33400C1201263B
:1016100006FA04F41688344013B10CB1012000E03E
:10162000002070BDF0B503460024002600250020F0
:1016300040F66A17B94200D100BF1846C1F3421400
:1016400001F01F06012707FA06F5012C01D10C3025
:1016500004E0022C01D1103000E014301AB1076808
:101660002F43076002E00768AF430760F0BD00004A
:101670002DE9FF4705460E460024A14600BFA046BF
:10168000B08900B100BF2C8A24F44054F088044390
:101690002C82AC8941F20C608443B08831890843C4
:1016A000718908430443AC81AC8A24F44074B08946
:1016B0000443AC826846FFF74DFC2048854202D0C7
:1016C0001F48854202D1DDF80C9001E0DDF808905A
:1016D000A88900F4004040B109EBC90000EB0910F3
:1016E00031684900B0FBF1F707E009EBC90000EBF6
:1016F000091031688900B0FBF1F76420B7FBF0F006
:1017000004012009642101FB1078A88900F400403D
:1017100040B1322000EBC800B0FBF1F000F0070050
:10172000044308E0322000EB08106421B0FBF1F024
:1017300000F00F0004432C81BDE8FF87001001403A
:101740000014014001468888C0F30800704700BFBC
:10175000FEE700000FB4054B10B503A9044A029838
:1017600000F0F2FF10BC5DF814FB0000512F0008E0
:101770001400002003B401984100009850EAC120F1
:1017800018BF04204A0D18BF40F0010040F2FF725C
:10179000B2EB515F08BF40F00200012808BF0520EE
:1017A00002B07047000000002DE9F04D2DED040B54
:1017B0002DED0E8B96B0DDE92550279CDDF890A02D
:1017C00025F0004624F00048BAF1000F14BF0121B3
:1017D000002101EB4502FC4953184A1093422AD3D9
:1017E000002814BF0123002303EB44030B44F749F3
:1017F0008B4220D358EA00019FEDF59B76D0DFF8AD
:10180000D8B35D4503D1BAF1000F05D188E0BAF134
:10181000000F08BF002100D0012101EB450111F5A7
:10182000001F08D8002814BF0121002101EB44014A
:1018300011F5001F0BD99DED261B9DED240B16B055
:10184000BDEC0E8B04B0BDE8F04D00F069BE002782
:10185000002DBCBFE149884521DAE1498845A8BF90
:1018600002271CDAC3451ADCDE4901EB2851142992
:1018700008DDC1F1340220FA02F101FA02F28242DB
:101880000DD108E058B9C1F1140228FA02F101FAA9
:1018900002F2424503D101F00101C1F1020756EA0B
:1018A0000A0124D1002C22DA002D18BF022F01D00A
:1018B000012F0AD0022000F07FFE16B0BDEC0E8B87
:1018C00004B0BDE8F04D00F013BE022000F074FE3D
:1018D00000F00EFE51EC100B81F0004141EC100BBA
:1018E00016B0BDEC0E8B04B0BDE8F08D18E09FED96
:1018F000BEAB9FEDBF8B002871D1B848804522D187
:1019000005F1804010F5801008BFBAF1000F07D034
:10191000B3450ADC002CA8BF9DED260BE0DA0DE0F4
:10192000B0EE490AF0EE690ADAE7002C06DA9DED1E
:10193000260B51EC100B81F000416FE0AE4878446B
:1019400090ED000BCCE7D8454DD1002C48DA2EB1F4
:1019500086423AD1BAF1000F42D126E0BAF1000F27
:1019600013D0022000F028FE00F0F6FD8DED020BF2
:101970009DED240B8DED000B10EE900A039961F3A1
:101980001E0003909DED020BAAE78DED02AB9DEDCD
:10199000240B1AEE901A10EE900A8DED000B61F3F5
:1019A0001E0003909DED020B9AE78DED028B9DEDDD
:1019B000240B18EE901A10EE900A8DED000B61F3D7
:1019C0001E0003909DED020B8AE709DA9DED240BC2
:1019D00051EC190B53EC102BFEF70CFE1EE020E02F
:1019E0009DED240B7CE786421BDAB4F1804F0DD0CD
:1019F000A4F10050B0F1FF5013D1002D11DB9DED8B
:101A0000240B51EC100B01F0D1FB07E09DED240BF2
:101A100053EC102B51EC100B00F0C2BC41EC100B3E
:101A20005EE79DED240B51EC100B01F085FABAF145
:101A3000000FCDE90E0142D19FED710B46B3A6F127
:101A4000E040B0F17F600CD05E4538D1002D00DA67
:101A5000A7B3022F0CBF01204FF0FF30FEF750FE5E
:101A6000DCE7002D01DD002C0DDA002D01DD002C5E
:101A70001FDB002D16DA002C14DB012F08BF9FEDB1
:101A8000620B3FF42DAFB0EE4A0AF0EE6A0A27E788
:101A9000022F18BF002D0CD0012F0AD1002DFFF608
:101AA0001FAF06E0002DB8BF002C08DA012F3FF46D
:101AB00017AFB0EE480AF0EE680A11E71BE001200C
:101AC00000EBE57050EA070115D0791EB0EE498AA7
:101AD000F0EE698A084308BF9FED4D8B4E48002504
:101AE000804570DD4D494E48884514DDB0420DDB20
:101AF000002C19DB2FE0012000F05EFD16B0BDECDC
:101B00000E8B04B0BDE8F04D00F016BDB34502DC0D
:101B1000002C09DC1FE0864202DA002C1BDA03E00D
:101B20005E452BDD002C16DD022000F045FD00F0A7
:101B300013FD8DED020B53EC1A2B51EC180BFEF735
:101B4000E7FCCDE900010399019861F31E000390C1
:101B50009DED020BC4E6022000F02EFD00F00CFD0E
:101B600010EE901A18EE900A8DED020B8DED008BA1
:101B700061F31E0003909DED020BB1E69DED0E0B8F
:101B800053EC192B51EC100BFEF7BBFB9FED260B12
:101B9000CDE9080153EC102B9DED080B51EC100B17
:101BA000FEF7B6FC9FED221B53EC112BFEF7ACFBAE
:101BB0009DED081B53EC112BFEF7AAFC9FED1E1B9D
:101BC00053EC112B3CE08CE0FFFF1F00FFFF0F00E8
:101BD000000000000000F03F0000F03F0000F07F38
:101BE0000000404301FCFFFF000000000000F07F08
:101BF00000000000000000000E1A000000000000BD
:101C00000000000000000080000000000000F0FF65
:101C1000000000000000F0BF0000E0410000F043C1
:101C2000FFFFEF3F00000000000000000000D03F79
:101C3000555555555555D53F000000000000E03F73
:101C4000FEF762FB9DED080B41EC1A0B53EC102BD9
:101C500051EC100BFEF75CFC53EC1A2BFEF758FC12
:101C600041EC1A0B9FEDFE0B53EC102B9DED080B76
:101C700051EC100BFEF74CFC41EC1B0B9FEDFA0BEB
:101C800051EC1A0B53EC102BFEF742FC41EC1A0BF3
:101C90009FEDF70B53EC102B9DED080B51EC100B47
:101CA000FEF736FC53EC1A2BFEF72BFB41EC1A0B1C
:101CB00051EC1B0B53EC1A2BFEF782FA0690CDE980
:101CC00006519DED060B53EC1B2B51EC100BFEF750
:101CD00018FB53EC1A2BFEF717FB41EC100B00F02E
:101CE000A1B90020B6F5801F0EDA9FEDE30B53EC8F
:101CF000102B9DED0E0B51EC100BFEF709FCCDE9FE
:101D00000E016FF034000E4600EB2650A0F2FF37B4
:101D1000C6F31300DA4940F07F6646F04056884229
:101D2000D8BF002408DDD7498142C8BF012403DCA5
:101D30000024A6F580167F1CD348784400EBC4002D
:101D40000F9690ED00CB9DED0E0B53EC1C2B51EC40
:101D5000100BFEF7D6FA9DED0E0B41EC1B0B53EC6E
:101D60001C2B51EC100BFEF72BFA41EC100B51EC35
:101D7000190B53EC102BFEF73DFC41EC1D0B51EC05
:101D80001B0B53EC1D2BFEF7C3FB41EC1A0BBF489A
:101D90008DED10AB7844109590ED000B4FF0005096
:101DA00040EA660000EB84408DED080B00F5002052
:101DB00009909DED080B53EC1C2B51EC100BFEF71A
:101DC000A0FA9DED0E1B53EC112BFEF79DFA41EC92
:101DD000100B53EC102B9DED100B51EC100BFEF77C
:101DE00097FB9DED080B41EC1C0B53EC102B9DED6C
:101DF000100B51EC100BFEF78BFB53EC1B2BFEF77B
:101E000083FA53EC1C2BFEF77CFA53EC1D2BFEF7E8
:101E10007FFB41EC1C0B53EC1A2B51EC1A0BFEF719
:101E200077FB41EC1B0B9A480621B0EE4B0AF0EE13
:101E30006B0A784400F0E0FAB0EE401AF0EE601A57
:101E4000B0EE41DAF0EE61DA53EC1B2B51EC1B0BD8
:101E5000FEF75EFB53EC1D2BFEF75AFB9DED100BBE
:101E600041EC1B0B53EC1A2B51EC100BFEF7A8F9AD
:101E700053EC1C2BFEF74CFB53EC1B2BFEF7A0F98D
:101E80009DED100B41EC1B0B53EC102B51EC100B88
:101E9000FEF73EFB41EC1D0B9FED7FEB53EC1E2B41
:101EA000FEF78EF953EC1B2BFEF78AF90890CDE96B
:101EB00008519DED080B53EC1E2B51EC100BFEF757
:101EC00020FA53EC1D2BFEF71CFA53EC1B2BFEF7EC
:101ED0001BFA9DED080B41EC1D0B53EC102B9DEDF7
:101EE000100B51EC100BFEF713FB41EC1B0B53ECEA
:101EF0001A2B51EC1D0BFEF70BFB9DED080B41EC73
:101F00001A0B53EC102B51EC1C0BFEF701FB53EC9E
:101F10001A2BFEF755F941EC1A0B51EC1B0B53EC45
:101F20001A2BFEF74DF90C90CDE90C519DED0C0BE1
:101F300053EC1B2B51EC100BFEF7E3F953EC1A2B6F
:101F4000FEF7E2F941EC1B0B9FED550B53EC102B08
:101F50009DED0C0B51EC100BFEF7DAFA41EC1A0B6D
:101F60009FED510B51EC1B0B53EC102BFEF7D0FAED
:101F700041EC1B0B9FED4E0B53EC102B9DED0C0B0E
:101F800051EC100BFEF7C4FA53EC1B2BFEF718F9BB
:101F900041EC100B4848784400EBC40090ED001B66
:101FA00051EC100B53EC112BFEF70AF941EC1B0B13
:101FB0003846FEF7A5FBCDE9080153EC1B2B51EC8D
:101FC0001A0BFEF7FDF841EC100B3C48784400EB8F
:101FD000C40090ED00CB51EC100B53EC1C2BFEF722
:101FE000EFF89DED081B53EC112BFEF7E9F8069076
:101FF000CDE906519DED080B53EC102B9DED060B22
:1020000051EC100BFEF77DF953EC1C2BFEF779F920
:1020100053EC1A2BFEF775F953EC1B2BFEF774F9F2
:1020200041EC100B9DED261B53EC102B8DED001B8E
:1020300000959DED260B51EC100BFEF769FA9DED16
:10204000000B41EC1A0B53EC102B9DED260B51ECC1
:10205000100BFEF756F99DED061B53EC112B2FE0EC
:10206000000000604715F73FFE822B654715F73FDC
:1020700044DF5DF80BAE543E00000000000040431A
:102080008E9803007AB60B008A150000B815000080
:10209000C214000000000000000000000000084022
:1020A000000000E009C7EE3FFD033ADC09C7EE3F40
:1020B000F5015B14E02F3EBE4E1300000813000034
:1020C000FEF726FA53EC1A2BFEF77AF89DED060B75
:1020D00041EC1A0B53EC102B9DED000B51EC100B47
:1020E000FEF716FACDE90C019DED0C0B51EC1A0B25
:1020F00053EC102BFEF764F8CDE902010C46AA4917
:102100008C422FDB611A084318D19DED0C0B53EC68
:10211000102B9DED020B51EC100BFEF7F2F841EC89
:102120001B0B9FEDA30B51EC1A0B53EC102BFEF77E
:1021300047F853EC1B2BFEF70DFB2DD2022000F0CD
:102140003BFA00F009FA10EE901A18EE900A8DEDA5
:10215000020B8DED008B61F31E0003909DED020BD1
:10216000FFF7BEBB944A24F00041914214D3934937
:10217000214408437FF4EFAC9DED0C0B53EC102B86
:102180009DED020B51EC100BFEF7BBF853EC1A2B34
:10219000FEF7E0FA7FF6DFAC24F000408849894A78
:1021A000002601EB205182422BDA481C4FF48011AB
:1021B00021FA00F02044844AC0F30A517A44A1F283
:1021C000FF3192ED000B814A8DED080BCA4020EAE9
:1021D0000202C0F3130040F48010C1F1140120FA90
:1021E00001F60992002CB8BF76429DED080B53EC26
:1021F000102B9DED0C0B51EC100BFEF782F8CDE986
:102200000C019DED0C0B51EC1A0B53EC102BFDF750
:10221000D7FF9FED6F0B0890CDE9085153EC102BC1
:102220009DED080B51EC100BFEF772F941EC1B0B06
:102230009FED690B53EC102B9DED080B51EC100B2F
:10224000FEF766F99DED0C0B41EC1C0B53EC102BCB
:102250009DED080B51EC100BFEF753F853EC1A2BC5
:10226000FEF752F89FED5E1B53EC112BFEF750F971
:1022700053EC1C2BFDF7A4FF41EC1A0B51EC1B0B8C
:1022800053EC1A2BFDF79CFFCDE902019DED020BEB
:1022900053EC1B2B51EC100BFEF733F853EC1A2BBD
:1022A000FEF732F89DED020B41EC1A0B53EC102BAC
:1022B00051EC100BFEF72CF9CDE908014A489DEDD1
:1022C000080B0521784400F097F89DED081B51ECB0
:1022D000100B53EC112BFEF71BF99DED021B53EC79
:1022E000112BFEF711F8CDE906019DED020B53EC21
:1022F0001A2B51EC100BFEF70BF953EC1A2BFDF7D0
:102300005FFF9FED3B0B41EC1A0B53EC102B9DED47
:10231000060B51EC100BFDF7F4FF9DED060B41ECA5
:102320001B0B53EC102B9DED020B51EC100BFEF729
:10233000EFF853EC1B2BFEF75DF953EC1A2BFDF76E
:10234000E0FF9DED021B53EC112BFDF7DAFF53EC80
:10235000192BFDF7D9FFCDE9020101EB065001155C
:102360000029C8BF039015DC9DED020B324651ECED
:10237000100BFEF7AEF9FFF7FDF9042808BF00F0D7
:10238000FBF832469DED020B51EC100BFEF7A1F964
:10239000CDE902019DED020B51EC180B53EC102B13
:1023A000FEF7B6F8FFF73ABB0000904000000000CF
:1023B000FE822B654715973C00CC904000346F3F60
:1023C00001FCFFFF0000E03F90110000FFFF0F0045
:1023D00000000000432EE63F396CA80C615C20BE73
:1023E000EF39FAFE422EE63F6010000000000000C8
:1023F000000000000000004070B504462DED028B87
:102400004D1E00EBC500B0EE408AF0EE608A90ED04
:10241000000B35F0060017D053EC182B51EC100BC5
:10242000FEF776F841EC100B6D1E04EBC50090ED45
:10243000001B51EC100B53EC112BFDF7C1FE41ECCE
:10244000100B35F00600E7D1022D36D0042D1CD03C
:10245000062D1CBFBDEC028B70BD53EC182B51EC4C
:10246000100BFEF755F894ED0A1B53EC112BFDF7FA
:10247000A7FE53EC182BFEF74BF894ED081B53EC1A
:10248000112BFDF79DFE41EC100B53EC182B51EC7A
:10249000100BFEF73DF894ED061B53EC112BFDF7E6
:1024A0008FFE53EC182BFEF733F894ED040B53EC2E
:1024B000102BFDF785FE41EC100B53EC182B51EC63
:1024C000100BFEF725F894ED021B53EC112BFDF7D2
:1024D00077FE53EC182BFEF71BF894ED001B53EC22
:1024E000112BFDF76DFEBDEC028B41EC100B70BDA6
:1024F0009FED070B10B553EC102B9FED070B51EC24
:10250000100BFEF777F841EC100B10BD0000000037
:102510000000000000000000000000000000F03F8C
:1025200010B553EC112B51EC100BFDF749FE41ECAB
:10253000100B10BD000000009FED050B10B553EC13
:10254000102B51EC100BFEF755F841EC100B10BDA1
:1025500000000000000000009FED050B10B553ECDB
:10256000102B51EC100BFDF7D3FF41EC100B10BDFD
:1025700000000000000000709FED050B10B553EC4B
:10258000102B51EC100BFDF7C3FF41EC100B10BDED
:10259000000000000000001002E008C8121F08C17F
:1025A000002AFAD170477047002001E001C1121FD4
:1025B000002AFBD170470000014908607047000005
:1025C0002C0000202DE9FF5F82B00021DDE90430FE
:1025D000020DDDF840B0034318D044F61050A2F2CB
:1025E000FF3242431514119801281FD0A5EB0B00B0
:1025F000401C5FEA000A4FF000064E4FDFF83891AA
:10260000B046504615D5CAF1000413E011980124D4
:102610004AA3012801D16FEA0B010298119AC0E97F
:102620000031C0E9024206B0BDE8F09FCBF10000E6
:10263000DFE704460021404A491842EB0450CDE947
:10264000001012E0E00707D032463B4640464946BC
:10265000FDF75EFF8046894632463B4610461946E6
:10266000FDF756FF06460F466410002CEAD1DDE95F
:102670000401DDE90023BAF1000F06DAFDF748FF97
:1026800042464B46FDF744FF05E0FDF7B3FF4246E7
:102690004B46FDF7AFFF04460E460022284BFEF7DF
:1026A00059F803D84FF0FF30014607E00022254BD0
:1026B00020463146FDF784FDFEF733F8102409E08B
:1026C000002C0ADB0A220023FDF763FE039B303255
:1026D0001A55641E50EA0102F2D1641C039AC4F137
:1026E00011031444119A012A03D0012208430DD189
:1026F0000AE0084304D000204FF0110B119072E75C
:10270000A3EB0B056D1E0DE05B4504DD4FF00002F1
:1027100005F1010504E003DA4FF00002A5F101051F
:10272000002AECD002981199C0E90231C0E90045B5
:1027300079E70000000014400000F03F3000000086
:102740000000F0430000E03F2DE9FF4F95B09B46AD
:102750008946064600250FE2252877D10024274622
:10276000F84A0121059400E0044316F8013F203B9C
:1027700001FA03F01042F7D130782A2811D06FF017
:102780002F033078A0F13002092A16D8059A44F0B8
:10279000020402EB820203EB42021044761C059015
:1027A000EFE759F8042B0592002A03DA504244F46B
:1027B0000054059044F00204761C30782E2816D17F
:1027C00016F8010F44F004042A280DD06FF02F02F0
:1027D0003078A0F13003092B09D807EB870302EB0F
:1027E0004303C718761CF3E759F8047B761C30784E
:1027F0006C280FD006DC4C2817D068280DD06A282A
:1028000014D104E0742810D07A280FD10DE044F4DC
:1028100000140AE044F4801401E044F44014727897
:10282000824202D104F58014761C761C307866282A
:102830000BD013DC582877D009DC002875D0452848
:10284000F6D04628F4D047281AD19DE118E0632835
:1028500035D0642879D0652812D195E1702873D0DD
:1028600008DC6728F1D069286FD06E280DD06F285A
:1028700006D1B5E073282CD0752875D0782874D08F
:102880005A46179990476D1C75E1C4F3025002280F
:1028900009D003280DD0D9F8001004280DD00D6000
:1028A00009F1040967E1D9F80010EA17C1E90052FB
:1028B000F6E7D9F800100D80F2E70D70F0E719F88F
:1028C000041B8DF8001000208DF80100EA4601205D
:1028D00003E059F804AB4FF0FF3061074FF00001FF
:1028E00002D40DE008F101018846B9420FDA8045B3
:1028F000F8DB1AF808100029F4D108E008F101010A
:1029000088468142FADB1AF808100029F6D10598AA
:102910005B46A0EB080721463846179A00F094FA68
:10292000284400EB080507E04DE029E10DE01AF826
:10293000010B5A4617999047B8F10108F7D25B4648
:1029400021463846179A13E142E00A220092C4F366
:1029500002524FF0000A022A08D059F804CB032A89
:102960004FEAEC710AD00DE029E02AE009F10701F5
:1029700021F00702F2E802C1914609E00FFA8CFC4F
:102980004FEAEC71042A03D14FFA8CFC4FEAEC7148
:10299000002907DA0A460021DCF1000C61EB020194
:1029A0002D2202E0220504D52B228DF804200122DD
:1029B00003E0E20701D02022F7E7904659E00A2120
:1029C00002E010220DE010214FF0000A00910BE010
:1029D00010224FF0000A44F004040827009203E09C
:1029E00008224FF0000A0092C4F30252022A05D0D6
:1029F00059F804CB0021032A08D009E009F10701A6
:102A000021F00702F2E802C1914605E01FFA8CFCB2
:102A1000042A01D10CF0FF0C4FF00008220728D542
:102A2000702806D0009B83F0100353EA0A0305D0F8
:102A30000EE040228DF80420012208E05CEA010249
:102A400006D030228DF804208DF805000222904631
:102A5000009B83F0080353EA0A030AD15CEA0102EF
:102A600001D1620705D530228DF804204FF001080E
:102A70007F1E582804D034A003900EA802900DE0C9
:102A800036A0F9E753466046009AFDF782FC84467B
:102A90000398825C0298401E029002705CEA01007A
:102AA000F0D1029806A9081A00F1200A600702D5A1
:102AB00024F4803400E00127574502DDA7EB0A002B
:102AC00000E0002000EB0A01009005984144401A04
:102AD0000590E00306D45B462146179A059800F05E
:102AE000B3F90544002706E001A85A46C05D1799CE
:102AF00090476D1C7F1C4745F6DBE0030CD55B4619
:102B00002146179A059800F09FF9054404E030200B
:102B10005A46179990476D1C0099481E009000294D
:102B2000F5DC08E0029802995A460078491C0291A7
:102B3000179990476D1CBAF10001AAF1010AF1DC66
:102B400065E1000009280100303132333435363771
:102B500038396162636465660000000030313233E9
:102B60003435363738394142434445460000000089
:102B700000F058F90544761C307800287FF4ECAD5D
:102B800019B02846BDE8F08F620700D4062709F186
:102B9000070222F0070CFCE80223E14603F000489C
:102BA0005FEA080C02D00FF2702C0DE05FEA045CC3
:102BB00002D50FF2682C07E05FEAC47C02D00FF266
:102BC000602C01E0AFF2700C4FF0FF3823F00043AF
:102BD000CDF850C065280CD006DC452809D0462821
:102BE0001DD047283DD13DE0662818D067287ED10A
:102BF00038E00021112F01DB112000E0781CCDE925
:102C0000000106A90EA8FFF7DDFCDDE90F010E9A11
:102C100003910021009207F1010A04914DE04FF069
:102C200000400097CDE9011006A90EA8FFF7CAFCE5
:102C3000DDE90F0203920E9B11990022DDF80CA032
:102C40000093049211B9791C00EB010AB7EB0A005A
:102C500004D4C0F1FF3007F1010A0490AAEB070089
:102C6000019044E0012F00DA01270021112F01DD3E
:102C7000112000E03846CDE9000106A90EA8FFF7B3
:102C8000A1FCDDE90F010E9A03910021049100924D
:102C9000BA4621070CD40399514500DA8A46BAF1A5
:102CA000010F05DD009AAAF10101515C302908D01D
:102CB000B84202DA10F1040F06DA0121CDE9011061
:102CC00015E0AAF10101E9E7002805DC04990144B7
:102CD0000491AAEB000102E0411C514500DD8A4647
:102CE0000499401A401C01904FF0004002902007C8
:102CF00004D40198504501DBCDF8048000208DF804
:102D00004F0002980DF14F07B0F1004F25D02B2056
:102D10000E9002984FF0020800280CDA4042029010
:102D20002D200E9007E00A210298FDF71CFB3031A0
:102D3000029007F8011DB8F10001A8F10108F2DCCA
:102D400002980028EFD1791E0E980870307800F0B4
:102D5000200040F0450007F8020D12A8C01B00F14A
:102D600007081498007800B1012000EB0A010198CF
:102D700001EBE07105984144401A401E0590E003C4
:102D800006D45B462146179A059800F05DF8054485
:102D90001498007818B15A46179990476D1CE003B3
:102DA00024D55B462146179A059800F04DF8054456
:102DB0001CE00498002807DBDDE90301884203DDFD
:102DC0000098405C179901E0179930205A469047C7
:102DD000049805F10105401C04900198401E0190E3
:102DE00004D12E205A46179990476D1CBAF1000164
:102DF000AAF1010ADDDC05E017F8010B5A46179924
:102E000090476D1CB8F10001A8F10108F4DC5B46A5
:102E10002146179A0598ABE62D0000002B00000014
:102E2000200000002DE9F041044600251E4617460B
:102E3000880404D405E039462020B0476D1C641E88
:102E4000F9D52846BDE8F0812DE9F041044600257A
:102E50001E469046C80301D5302700E0202788048D
:102E600004D505E041463846B0476D1C641EF9D5CF
:102E70002846BDE8F081000010B504466FF004005C
:102E8000FEF774F9E11704EB5171C1F3C701074A6A
:102E900011701046007800EB4001C1EBC0104FF6F6
:102EA000FF7101EAC0000249088010BD1000002037
:102EB0001200002070B504464FF4077094FBF0F048
:102EC000C6B24FF4077094FBF0F100FB114085B2DD
:102ED00005E04FF4077000F009F8701EC6B2002E2E
:102EE000F7D115B1284600F001F870BD0146114A2E
:102EF00012884A434FF0E0235A6100229A611A4631
:102F0000126942F001021A6100BF4FF0E02210691D
:102F100000F001021AB100F48032002AF5D04FF01F
:102F2000E022126922F001024FF0E0231A61002230
:102F30009A6170471200002082B0CDE9000121F0B3
:102F4000004001909DED000B02B051EC100B70475A
:102F500000BF054A128802F04002002AF9D0C2B22E
:102F6000014B9A8070470000001001402DED048B4A
:102F7000A820FFF781FF4FF4A060FDF7AFFFFDF73A
:102F80004DFFFDF70BFE9FED521B9FED530BFEF720
:102F90000BFCB0EE409AF0EE609A9FED510B53ECB3
:102FA000102B51EC190BFDF7ACF941EC180BFDF7A8
:102FB000AEF9044642F2CF01FEF722F942F2CF0108
:102FC00042F20F70FEF752F942F2CF0144F61F6051
:102FD000FEF790F942F2CF0149F63F40FEF7CEF9F5
:102FE00042F2CF0149F63F40FEF70CFA4FF416507B
:102FF00000F014F93CA0FEF7ADFB68E00821424860
:10300000FDF7D7FE10B941A0FEF7A4FB10213E4802
:10301000FDF7CFFE10B940A0FEF79CFB41480068C9
:1030200028B99FED410A414880ED000A0BE03D4878
:1030300090ED000AB8EE400ADFED3D0A80EE801AFE
:103040003A4880ED001A3B4801783BA0FEF782FB2E
:1030500001212D48FDF7ADFE012803D13AA0FEF76E
:1030600079FB02E03CA0FEF775FB3F48007818B9F9
:103070003EA0FEF76FFB0FE03B480078012803D12C
:103080003DA0FEF767FB07E03EA0FEF763FB9FED68
:10309000260A264880ED000A24480068FDF750F90A
:1030A00041EC180B53EC182B39A0FEF753FB15A07D
:1030B000FEF750FB01203B4908606420FFF7FAFE51
:1030C00000203949C1F8A0026420FFF7F3FE95E71C
:1030D0000000000000004040000000000000004030
:1030E000000000000000F03F0D0A2057656C636F80
:1030F0006D6520746F207573652053544D333246CF
:10310000343037200D0A000000100240B6D7B5D782
:10311000D7B4CCAC0D0A0000B3E5B6A5D7B4CCAC9F
:103120000D0A00000C000020000000000400002038
:103130000060EA4602000020B5B1C7B0B2E3CAFDA4
:103140003A25640D0A000000B5E7CCDDC3C5B4F232
:10315000BFAA0D0A00000000B5E7CCDDC3C5B9D891
:10316000B1D50D0A0000000008000020D5FDD4DA1A
:10317000C9CFC9FD0D0A0000D5FDD4DACFC2BDB557
:103180000D0A0000D2D1BEADCDA3CFC20D0A000002
:10319000D4CBD0D0CBD9B6C8CEAAA3BA25660D0A57
:1031A00000000000A00240420000404200B52DEDAA
:1031B000048B83B041EC190BFDF7F6FA41EC180BC8
:1031C00018EE100A18EE901A8DED008B002818BF2B
:1031D0000120084320F00040C0F17F6000F1E04092
:1031E000C00F14D019EE101A19EE900A8DED009B45
:1031F000002918BF0121084320F00040C0F17F6082
:1032000000F1E040C00F04BF0120FFF7D5F951ECF9
:10321000180B03B0BDEC048B00BD000010B588B0E6
:10322000044601210846FDF765FE01211020FDF747
:1032300081FE072209212248FDF798FD07220A2175
:103240001F48FDF793FD4FF4C060069002208DF8F3
:103250001C008DF81D0000208DF81E0001208DF847
:103260001F0006A91648FDF739FD02940020ADF8AD
:103270000C00ADF80E00ADF81000ADF814000C20F5
:10328000ADF8120002A90F48FEF7F2F901210D482E
:10329000FEF792F9012240F225510A48FEF7C2F9E1
:1032A00025208DF8040003208DF805008DF8060018
:1032B00001208DF8070001A8FDF7D4FD08B010BD6E
:1032C0000000024000100140000000000000F03F3C
:1032D000000000000000F83F0000000000000000B7
:1032E0000000004003B8E23F0000000000000000C2
:1032F00006D0CF43EBFD4C3E033333333333E33F50
:10330000FFAB6FDBB66DDB3F4D268F515555D53F7B
:1033100001411DA96074D13F65DBC9934A86CD3F49
:10332000EF4E454A287ECA3F3E5555555555C53F37
:1033300093BDBE166CC166BF2CDE25AF6A56113F29
:10334000F16BD2C541BDBBBED0A4BE726937663E2B
:10335000000000000000000078330008000000209A
:103360003000000098250008A83300083000002035
:10337000C8040000A82500080100030000000000A8
:10338000020000000000000000000000000000003B
:10339000000000000000010203040102030406070C
:0833A000080900000000000014
:040000050800018965
:00000001FF
